:020000040000FA
:100000009D31002D8A01BD298A0140014E018C1EBF
:100010000D328C1240016A2068206620642012157F
:10002000A30B03322008A3001211E6214E018F1FFB
:100030000132C3204E018F1E0132B322090040015C
:100040005F30FF0020308400850144205030FF00E5
:10005000A03084004420850A3B20850A3B20850A85
:100060003B20850A3B20850A3B20850A3030FF0073
:100070002030840009325030FF00203084004420BA
:100080005030FF00A03084008001840AFF0BFC3355
:1000900008000030AA003A308400850194201A003C
:1000A000AA0A42300402031DF93308000030AA00F6
:1000B0003A30840085011200AB009E20AA0A42302B
:1000C0000402031DF83308003330053231300332A7
:1000D0002F3001322D3084000030850013000004E1
:1000E0000319080001308002840A0301803B0800E4
:1000F0004001320833040800400130083104080090
:1001000040012E082F04080040012C082D0408008F
:1001100005300332413001321930F7000000000091
:10012000F70BFC330800AA002A08803E84001F3029
:1001300089178500000840010800AA002A0850011C
:10014000803E9A001F309B0040012B0850019C000C
:1001500003019D001E138B138B1BFD331E155530A1
:100160009F00AA309F009E149E18FE331E118B170D
:1001700040010800400136190800340854019A0073
:1001800040013615080054011D080639031D0532CB
:1001900019084001B500B614080019081D121D11F8
:1001A0009D101D164001B5010800F8004201A00A8B
:1001B00022081F39A20A263E8400013085007808F3
:1001C00080004001080042017810A00803190A329B
:1001D0007814A00323081F39A30A263E84000130A7
:1001E00085000008400108004201A001A301A2010E
:1001F0004001080042012008400108004201210896
:1002000040010800F8004201A10A24081F39A40A8D
:10021000463E8400013085007808800040010800D7
:100220004201A10803190232A103A40340010800FE
:1002300042017810A10803190A327814A103250895
:100240001F39A50A463E84000130850000084001A0
:1002500008004101A008031907324001AC08031D42
:100260000332B6154101A001E320781C0800F80014
:100270000530AC004101A008031D0532DD307802D5
:10028000031920141832A0180632DD307802031D3D
:100290009729A0141032410120190F32A301A201A5
:1002A000211540013B0841017802031D2111201551
:1002B0007808A400A30640010800201A0C32A115FA
:1002C00040013C0841017802031DA1112016780865
:1002D000A500A306F033201B0F322208A63E84009F
:1002E000003085007808A3068000A20A04302202AC
:1002F000031DE1332017DF3378082302031D173273
:10030000A630840000308500AA30860000308700C7
:100310000430F80012001E00F80BFC33A114211465
:10032000211D2110A11D2110A00140010800A001E4
:10033000F42801300430F800AE3086000030870029
:1003400000301E00F80BFD33400108004001FA01A7
:100350003C08FA0602213B08FA060221410104305A
:10036000F900AE308600003087001600FA06022140
:10037000F90BFB337A08022199293322000000008F
:1003800040013A080B00E229E329E429E52940016C
:10039000FA20031D29214101A11C033288310420C8
:1003A00081314E010F1BBA204001B61C03323508C3
:1003B000B610D520361D05321821781C0232B40043
:1003C0003611DC33C729C729C729C7293F08073990
:1003D0000B00223206320D321F321E320C320D3229
:1003E0000E3212160000000000000122281A12121C
:1003F00013320122113201220F3201220D32012269
:100400000B322811BF1903320C1E281502320C1AA8
:100410002815281DA8110800400807390B002232B2
:1004200006320D321F321E320C320D320E3292164F
:100430000000000000002722A81B9212133227227E
:10044000113227220F3227220D3227220B32A81217
:10045000C01903328C1EA81602328C1EA816A81EC4
:10046000281308000800500126308C007E0100305F
:10047000B800BB01BC010030C3000030CE00D10188
:10048000D2014001003098000030990000309A00FD
:10049000FF309200AF309300FF3094001F206400C3
:1004A00049204B0189309E0056309F007D309D00D1
:1004B0009E174E01961640010B178B176430A00053
:1004C000A101A2010130A30012116430A000643028
:1004D000B200540108309F00CF309B0000309C00D8
:1004E0009D171D161E121E159E164E0199174201CC
:1004F00008309F00CF309B0000309C009D171D17D7
:100500001D169D151E121E159E121E174001191351
:1005100019124E01991608004001391D05321323A6
:10052000781C0232B700391108004001391C06322C
:100530008C22391D08004E010F1E0A3242019E1204
:100540009D171D171D169D154001391019131912FD
:1005500040010800400139190800370842019A009B
:1005600040013915080042011D080639031D1032EB
:100570009D1D06321D1C04329D11400139160232A8
:1005800040013912420119084001B800B9140800AD
:1005900019081D121D119D101D164001B8010800FB
:1005A000F8004401B20A34081F39B40A383E840006
:1005B000023085007808800040010800440178106E
:1005C000B20803190A327814B20335081F39B50A84
:1005D000383E8400023085000008400108004401D4
:1005E000B201B501B40140010800440132084001E4
:1005F00008004401330840010800F8004401B30A30
:1006000036081F39B60A583E840002308500780843
:100610008000400108004401B30803190232B3030B
:10062000B6034001080044017810B30803190A32E8
:100630007814B30337081F39B70A583E84000230D4
:1006400085000008400108004401A0080319073292
:100650004001AE08031D0332B9154401A001DE229A
:10066000781C0800F8000530AE004001B91A0B32C2
:10067000A1153D0844017802031DA111B91678089F
:10068000A500A30610324401391B0F32A301A201B9
:10069000211540013E0844017802031D211139173C
:1006A0007808A400A30640010800201A0F3222088F
:1006B000263E8400023085007808A3068000A20A46
:1006C00004302202031DEF332016ED337808230295
:1006D000031D173226308400023085002A30860040
:1006E000023087000430F80012001E00F80BFC33C3
:1006F000A1142114211D2110A11D2110A0014001D0
:100700000800A001F42801300430F800AE30860063
:100710000030870000301E00F80BFD334001080058
:100720004001FA013D08FA06FD223E08FA06FD22C4
:1007300044010430F900AE30860000308700160016
:0E074000FA06FD22F90BFB337A08FD22832B0B
:101000008131A621883108004101A1102118023246
:10101000400108004001AA30860000308700AE3051
:101020008400003085001600F800F039031D1332EB
:1010300078080F390B0008007B3208000800080010
:101040000800080008000800080008000800080060
:10105000080008000800803C031D133278080F398F
:101060000B0008005E3208000800080008000800B5
:101070000800080008000800080008000800080030
:1010800008007808F039203C031D0B320730780542
:101090000B0008000800A728C9280800080008005D
:1010A00008007808F039B03C031D0B320730780592
:1010B0000B00080008009B28B3280800080008005F
:1010C00008007808F039903C031D13320F30780582
:1010D0000B0008000800080001000C291029080076
:1010E000080014291F29080008000800080008004B
:1010F00008007808F039A03C031D03320F30780552
:101100000B00080025292B2908000800080008000A
:10111000080008000800312908000800080008003D
:10112000080004300102031873331600BA0048297E
:101130003A081A0000280108023C031C082816007F
:101140003F3E84000030850016001A00482901083F
:10115000023C031C082801083F3E8600003087003F
:1011600001081A0000281600F800023C031C082899
:1011700078083F3E840000308500000807390B00E6
:10118000482906324829043248294829482948294B
:1011900048290108F800023C031C082878083F3E53
:1011A000860000308700010807390B00082822322A
:1011B0000F320E3203320C320B320A327835BB3E1C
:1011C00086000030870016001A0016001A0000285A
:1011D0007808031D0432281901301A000028013C48
:1011E000031D0432A81A01301A000028030101303F
:1011F0001A0000287808031D0432281901301A004B
:101200000028013C031D0432A81A01301A000028EE
:10121000030101301A000028803156208931482905
:10122000803149208931482924081A0025081A00EC
:1012300026081A0026081A00B611A5010028FF305A
:10124000AB0080319D20893101001600BB00803148
:101250005620893100281600BC0080315620893183
:101260000028F90179083A210038031908004921BA
:10127000F90AF8330B0044344D34463445342034F5
:1012800053344D345234523443340A340034080059
:0A129000FF3081310221893108008E
:103A000089260526FF3A031D0B322A30FE252A306F
:103A1000FE25A001A101A501A601422612250D2621
:103A200080310228AC10AA01A801AD01DE252C10BE
:103A3000ED25F8003A307802031D03320130AA0068
:103A4000F633AA080319F43330307802031CEB3341
:103A50003A307802031C0A3241307802031CE33307
:103A6000473078020318DF330730F8023030F802AD
:103A70002C180432780EAB002C14DA337808AB071C
:103A80002A0807390B00CF330632113214321732AD
:103A90001D322532C83341302B02031C03322B3038
:103AA000FE25132D2B08A700AD07AA0A172D2B08FA
:103AB000A400AD07FA332B08A300AD07F6332B089B
:103AC000A900AD07A7080319AA0AEF332B081A00AB
:103AD000AD07A80A28082702031D172DE633F801B1
:103AE0002D0878022B02031903322D30FE25132DE9
:103AF0002908F839031D183229080B000B32063249
:103B000013321232093210320F320E32AC18CD2578
:103B10002A30FE2D96250532DE251200A600120061
:103B2000A5002A30FE25132D3D30FC332508260440
:103B3000031D0800A436A30C1D302402031808003E
:103B4000AC1C0D3224082102031D0832E030200590
:103B5000F800E0302305780203190A32CD25230846
:103B6000E039A0002408A100FF30E03A2305A200BC
:103B7000DE252235003E8600213087002808F90026
:103B80002836A20712001E00F90BFC33AC142030BB
:103B9000220203190232031C0800E3254D260030DF
:103BA000840021308500E325282609180632E32504
:103BB0001B26091C5C26E8256C26422E80308400DA
:103BC0002130850008004030860021308700080041
:103BD000003086002130870008004E018F1FFD3322
:103BE00054011D080639031D03321908400108005D
:103BF00019081D121D119D101D16EF334E010F1FC8
:103C0000FE3354019A0040010800FF3084001F3049
:103C10008917850000084001080050011E13FF307D
:103C20009A001F309B009C011E1583269E18FE33B0
:103C30001E11400108002030F9001600FF3C031D52
:103C4000003416003F3C031D0034F90BF6330134F9
:103C50002030F9001200F7001200F8003F3C031D6D
:103C60000632770A031D03321600160008321600CA
:103C70007702031D003416007802031D0034F90B8F
:103C8000E9330134E825AC102030F900FF301E0084
:103C90003F301E00F90BFA33080064261E13203053
:103CA000F9001E141C081E001D081E00F90B02322C
:103CB000400108009A0AF53364261E131E161E15CD
:103CC00083261E1140010800210850019B0040017D
:103CD000200850019A00080064261E131E159E1627
:103CE0002030F90016009C0016009D001A081F3AAB
:103CF0001F390319033283269A0AF4339E1283264E
:103D00001E114001080055309F00AA309F009E14EC
:103D100008007E01B801C301CE01400100309800C7
:103D20000030990000309A00FF309200AF309300CD
:103D3000FF309400540108309F00CF309B000030CA
:103D40009C009D171D161E121E159E164001080090
:103F000000000100020002000100000000000000AB
:023FFE000000C1
:020000040001F9
:02000E008C1F45
:08001000FE3F9F3FEF1FFF3F81
:00000001FF
