:020000040000FA
:040000008A01C92880
:080008008A0140014E018C1E2B
:1000100020328C1240017920772075207320121530
:1000200012169216A30B03322008A30012112E11F0
:100030000C1E2E15A80B04326430A8002E1A1212C2
:10004000AE128C1EAE16A90B04326430A900AE1B92
:1000500092124E018F1E01326521090040015F306E
:10006000FF0020308400850153205030FF00A03075
:1000700084005320850A4A20850A4A20850A4A209E
:10008000850A4A20850A4A20850A3030FF00203040
:10009000840009325030FF0020308400532050305B
:1000A000FF00A03084008001840AFF0BFC330800AD
:1000B0000030B000403086008701A3201E00B00A47
:1000C00045300602031DF93308000030B00040300F
:1000D000840085011200B100AD20B00A4530040251
:1000E000031DF8330800393005323730033235301C
:1000F00001323330840000308500130000040319FE
:10010000080001308002840A0301803B080040019E
:100110003808390408004001360837040800400157
:100120003408350408004001320833040800053063
:100130000332413001321930F70000000000F70BA4
:10014000FC330800B0003008803E84001F3089175F
:100150008500000840010800B00030085001803ED2
:100160009A001F309B004001310850019C000301A0
:100170009D001E138B138B1BFD331E1555309F00E6
:10018000AA309F009E149E18FE331E118B1740014B
:100190000800E82000000000400140080B00E428AF
:1001A000E528E628E72840019D21031DCC214401D4
:1001B000A11C033288310A2080314A21BF1C03323E
:1001C0003E08BF107821E633D328D328D328D3287C
:1001D000500126308C007E010030B800BB01BC010C
:1001E0000030C3000030CE00D101D2014001003008
:1001F00098000030990000309A00FF309200AF3034
:100200009300003094002E20640058204B01893068
:100210009E0056309F007D309D009E174E01961621
:1002200040010B178B176430A000A101A20101301F
:10023000A30012116430A0006430B8006B224001AA
:10024000080040013F1C0F323F1D0D324E010F1EB2
:100250000A3242019E1C073242019E1240013F10A9
:1002600019131912AE174001AE17080040013F18CC
:100270000F32BF180D324101A008031D09324001A1
:100280003F141917191242019E1640012E16AE1383
:100290004001080040013F1D0532BB21781C11328E
:1002A000BD003F113F1C36213F1C09324E010F1E7D
:1002B000063240013D0842019A0040013F154001CD
:1002C000080040013F182121080042011D0806399D
:1002D000031D0632420119084001BE00BF14080088
:1002E00019081D121D119D101D164001BE010800A8
:1002F000F8004401B50A37081F39B70A3B3E8400AD
:100300000230850078088000400108004401781020
:10031000B50803190A327814B50338081F39B80A2A
:100320003B3E840002308500000840010800440183
:10033000B501B801B701400108004401350840018A
:1003400008004401360840010800F8004401B60ADC
:1003500039081F39B90A5B3E8400023085007808ED
:100360008000400108004401B60803190232B603B8
:10037000B9034001080044017810B60803190A3295
:100380007814B6033A081F39BA0A5B3E840002307B
:1003900085000008400108004401A0080319073245
:1003A0004001B408031D0332BF154401A00186219A
:1003B000781C0800F8000530B4004401A008031DB3
:1003C0000532DD307802031920141632A0180632E7
:1003D000DD307802031D3A2AA0140E3220190E32A5
:1003E000400143084401A1157802031DA111A20197
:1003F0007808A400A3002015400108002116A11DC3
:100400002112201A0C3240014308440121157802C0
:10041000031D21117808A500A3072016ED33201B2A
:100420000F322208263E8400023085007808A30798
:100430008000A20A04302202031DDE332017DC33C1
:10044000FF3023067802031D153226308400023067
:1004500085002A308600023087000430F800120040
:100460001E00F80BFC33A1142114211D2110A00142
:1004700040010800A00197294401AE01AF010430FA
:10048000F800303086000230870000301E00F80B84
:10049000FD33B40140010800DD30A521DD30A52188
:1004A000FA0144012E08FA07A52144012F08FA0792
:1004B000A52144010430F900303086000230870065
:1004C0001600FA07A521F90BFB33FF307A06440129
:1004D000B400A5213C2A7D010D30CB000F30CC00AB
:1004E0007E010F309F00420108309F00CF309B00FB
:1004F00000309C009D171D161E121E159E124001F5
:10050000191319123F104E01991640013F150800AA
:10100000400143084401AE002408AF0082314C2265
:10101000883108004401A110211802324001080063
:1010200040012A30860002308700303084000230D0
:1010300085001600F800F039031D133278080F39C7
:101040000B0008007B3208000800080008000800B8
:101050000800080008000800080008000800080050
:101060000800803C031D133278080F390B0008007C
:101070005E320800080008000800A128A428080023
:1010800008000800080008000800080008007808A8
:10109000F039203C031D0B320F3078050B0008009F
:1010A000080008000800B928BD28080008007808D2
:1010B000F039B03C031D0B320F3078050B000800EF
:1010C0000800080008000800080008000800780868
:1010D000F039903C031D13320F3078050B000800E7
:1010E000080008000100CF28D32808000800D728EE
:1010F0000800080008000800080008000800780838
:10110000F039A03C031D03320F3078050B000800B6
:101110000800E2280800080008000800080008008D
:101120000800080008000800080008000800043053
:101130000102031873331600C000080040081A00AB
:10114000002801089A00080016000739F900160067
:101150000139FA000130F908031903328935F9031E
:10116000FA3340017A1C02329A040800FF3A9A05C9
:10117000080040011A081A00002816000739F90073
:10118000FA010130F908031903328935F903FA33FA
:1011900040011A05031D7A147A081A0000288031CC
:1011A00065208831080080315820883108002A08DD
:1011B0001A002B081A002C081A002C081A00BC115F
:1011C000AB0100281600C30080316520883100285B
:0A3F000000000100030003000000B0
:023FFE000000C1
:020000040001F9
:02000E008C1F45
:08001000FE3F9F3FEF1FFF3F81
:00000001FF
