:020000040000FA
:100000009D31002D8A01D1298A0140014E018C1EAB
:1000100020328C1240017D207B2079207720121520
:1000200012169216A30B03322008A30012112E11F0
:100030000C1E2E15A80B04326430A8002E1A1212C2
:10004000AE128C1EAE16A90B04326430A900AE1B92
:1000500092124E018F1F0132D6204E018F1E0132A7
:10006000B322090040015F30FF0020308400850189
:1000700057205030FF00A03084005720850A4E20C2
:10008000850A4E20850A4E20850A4E20850A4E207C
:10009000850A3030FF002030840009325030FF00E4
:1000A0002030840057205030FF00A03084008001B1
:1000B000840AFF0BFC3308000030B000403086009B
:1000C0008701A7201E00B00A45300602031DF93340
:1000D00008000030B0004030840085011200B100FB
:1000E000B120B00A45300402031DF833080039304E
:1000F000053237300332353001323330840000307E
:100100008500130000040319080001308002840AEE
:100110000301803B08004001380839040800400111
:10012000360837040800400134083504080040014F
:1001300032083304080005300332413001321930EF
:10014000F70000000000F70BFC330800B000300897
:10015000803E84001F308917850000084001080098
:10016000B00030085001803E9A001F309B004001D3
:10017000310850019C0003019D001E138B138B1B43
:10018000FD331E1555309F00AA309F009E149E1807
:10019000FE331E118B174001080040013C19080076
:1001A0003A0854019A0040013C15080054011D080A
:1001B0000639031D053219084001BB00BC140800B4
:1001C00019081D121D119D101D164001BB010800CC
:1001D000F8004201A00A22081F39A20A263E840024
:1001E0000130850078088000400108004201781045
:1001F000A00803190A327814A00323081F39A30AA0
:10020000263E8400013085000008400108004201BC
:10021000A001A301A2014001080042012008400101
:1002200008004201210840010800F8004201A10A2B
:1002300024081F39A40A463E84000130850078084E
:100240008000400108004201A10803190232A10305
:10025000A4034001080042017810A10803190A32E2
:100260007814A10325081F39A50A463E84000130F1
:1002700085000008400108004101A0080319073269
:100280004001B208031D0332BC154101A001F62054
:10029000781C0800F8000530B2004101A008031DD9
:1002A0000532DD307802031920141832A018063206
:1002B000DD307802031DAB29A01410324101201952
:1002C0000F32A301A201211540014108410178022A
:1002D000031D211120157808A400A3074001080080
:1002E000201A0C32A1154001420841017802031D79
:1002F000A11120167808A500A307F033201B0F32A8
:100300002208A63E8400003085007808A3078000FC
:10031000A20A04302202031DE1332017DF33FF302D
:1003200023067802031D1732A630840000308500B2
:10033000AA308600003087000430F80012001E004A
:10034000F80BFC33A1142114211D2110A11D211033
:10035000A00140010800A001072901300430F80085
:10036000AE3086000030870000301E00F80BFD33F1
:10037000400108004001FA014208FA06152141082F
:10038000FA06152141010430F900AE308600003034
:1003900087001600FA061521F90BFB337A081521A0
:1003A000AD29032200000000400140080B00FF2996
:1003B000002A012A022A40010D21031D3C2141018E
:1003C000A11C03328831042081314E010F1BCD2046
:1003D0004001BC1C03323B08BC10E8203C1D053228
:1003E0002B21781C0232BA003C11EB22031D1A2388
:1003F0009822BF1C03323E08BF10C622D333DB292C
:10040000DB29DB29DB29500126308C007E010030FE
:10041000B800BB01BC010030C3000030CE00D101E8
:10042000D2014001003098000030990000309A005D
:10043000FF309200AF309300FF3094003220640010
:100440005C204B0189309E0056309F007D309D001E
:100450009E174E01961640010B178B176430A000B3
:10046000A101A2010130A30012116430A000643088
:10047000B8007D011130CD001030CE007E0111306A
:10048000A000540108309F00CF309B0000309C003A
:100490009D171D161E121E159E164E01991740011E
:1004A0003C157D010D30CB000F30CC007E010F30AC
:1004B0009F00420108309F00CF309B0000309C001D
:1004C0009D171D161E121E159E124001191319129A
:1004D0003F104E01991640013F15400108004001B0
:1004E0003F1C0F323F1D0D324E010F1E0A324201DA
:1004F0009E1C073242019E1240013F10191319122F
:10050000AE174001AE17080040013F180F32BF1868
:100510000D324101A008031D093240013F14191793
:10052000191242019E1640012E16AE13400108001A
:1005300040013F1D05320923781C1132BD003F11D7
:100540003F1C84223F1C09324E010F1E063240011F
:100550003D0842019A0040013F154001080040015A
:100560003F186F22080042011D080639031D06329C
:10057000420119084001BE00BF14080019081D12ED
:100580001D119D101D164001BE010800F800440118
:10059000B40A36081F39B60A3A3E84000230850094
:1005A000780880004001080044017810B40803195D
:1005B0000A327814B40337081F39B70A3A3E840068
:1005C000023085000008400108004401B401B70171
:1005D000B60140010800440134084001080044010C
:1005E000350840010800F8004401B50A38081F39F1
:1005F000B80A5A3E84000230850078088000400125
:1006000008004401B50803190232B503B8034001DC
:10061000080044017810B50803190A327814B503AC
:1006200039081F39B90A5A3E840002308500000893
:10063000400108004401A008031907324001B40832
:10064000031D0332BF154401A001D422781C080009
:10065000F8000530B4004401A008031D0532DD3068
:100660007802031920141232A0180632DD30780205
:10067000031D812BA0140A324001BF1A0932BF1694
:100680004401A301A2017808A400A30740010800C7
:1006900040013F1A0B322115430844017802031D23
:1006A00021113F167808A500A307F033201B0F3255
:1006B0002208263E8400023085007808A3078000C7
:1006C000A20A04302202031DE1332017DF33FF307A
:1006D00023067802031D153226308400023085007F
:1006E0002A308600023087000430F80012001E0015
:1006F000F80BFC33A1142114211D2110A00140018D
:100700000800A00107294401AE01AF010430F80040
:10071000303086000230870000301E00F80BFD33B9
:1007200040010800DD30F322DD30F322FA014401FC
:100730002E08FA07F32244012F08FA07F322440196
:100740000430F90030308600023087001600FA07C6
:10075000F322F90BFB33FF307A06F322832BDD30D3
:10076000F322DD30F322FA0141012408FA07F322D3
:1007700041012508FA07F3220430F900A63086006B
:10078000003087001600FA07F322F90BFB33FF3025
:060790007A06F3220800C6
:101000008131BA21883108004101A110211809322B
:10101000211D0532A11903328331AF2388314001EC
:1010200008004001AA30860000308700AE308400FE
:10103000003085001600F800F039031D13327808DF
:101040000F390B0008007B32080008000800080078
:101050000800080008000800080008000800080050
:1010600008000800803C031D133278080F390B007C
:1010700008005E32080008000800080008000800A8
:101080000800080008000800080008000800080020
:101090007808F039203C031D0B32073078050B002F
:1010A0000800080008000800080008000800080000
:1010B0007808F039B03C031D0B32073078050B007F
:1010C00008000800080008000800080008000800E0
:1010D0007808F039903C031D13320F3078050B006F
:1010E0000800080008000100A228A628080008003F
:1010F000AA28B52808000800080008000800080011
:101100007808F039A03C031D03320F3078050B003E
:101110000800BB28C12808000800080008000800D3
:1011200008000800C7280800080008000800080098
:1011300004300102031873331600C000E32840088E
:101140001A000028803169208831E32880315C2032
:101150008831E3282A081A002B081A002C081A00E4
:101160002C081A00BC11AB010028FF30B1008031FF
:10117000B020883101001600C1008031692088311B
:1011800000281600C2008031692088310028F9014A
:101190007908D020003803190800E420F90AF83350
:1011A0000B0044344D3446344534203453344D34EC
:1011B00052345234433420344E346F346434653402
:1011C0000A3400340800FF308131152188310800CD
:103A000089260526FF3A031D0B322A30FE252A306F
:103A1000FE25A001A101A501A601422612250D2621
:103A200080310228AC10AA01A801AD01DE252C10BE
:103A3000ED25F8003A307802031D03320130AA0068
:103A4000F633AA080319F43330307802031CEB3341
:103A50003A307802031C0A3241307802031CE33307
:103A6000473078020318DF330730F8023030F802AD
:103A70002C180432780EAB002C14DA337808AB071C
:103A80002A0807390B00CF330632113214321732AD
:103A90001D322532C83341302B02031C03322B3038
:103AA000FE25132D2B08A700AD07AA0A172D2B08FA
:103AB000A400AD07FA332B08A300AD07F6332B089B
:103AC000A900AD07A7080319AA0AEF332B081A00AB
:103AD000AD07A80A28082702031D172DE633F801B1
:103AE0002D0878022B02031903322D30FE25132DE9
:103AF0002908F839031D183229080B000B32063249
:103B000013321232093210320F320E32AC18CD2578
:103B10002A30FE2D96250532DE251200A600120061
:103B2000A5002A30FE25132D3D30FC332508260440
:103B3000031D0800A436A30C1D302402031808003E
:103B4000AC1C0D3224082102031D0832E030200590
:103B5000F800E0302305780203190A32CD25230846
:103B6000E039A0002408A100FF30E03A2305A200BC
:103B7000DE252235003E8600213087002808F90026
:103B80002836A20712001E00F90BFC33AC142030BB
:103B9000220203190232031C0800E3254D260030DF
:103BA000840021308500E325282609180632E32504
:103BB0001B26091C5C26E8256C26422E80308400DA
:103BC0002130850008004030860021308700080041
:103BD000003086002130870008004E018F1FFD3322
:103BE00054011D080639031D03321908400108005D
:103BF00019081D121D119D101D16EF334E010F1FC8
:103C0000FE3354019A0040010800FF3084001F3049
:103C10008917850000084001080050011E13FF307D
:103C20009A001F309B009C011E1583269E18FE33B0
:103C30001E11400108002030F9001600FF3C031D52
:103C4000003416003F3C031D0034F90BF6330134F9
:103C50002030F9001200F7001200F8003F3C031D6D
:103C60000632770A031D03321600160008321600CA
:103C70007702031D003416007802031D0034F90B8F
:103C8000E9330134E825AC102030F900FF301E0084
:103C90003F301E00F90BFA33080064261E13203053
:103CA000F9001E141C081E001D081E00F90B02322C
:103CB000400108009A0AF53364261E131E161E15CD
:103CC00083261E1140010800210850019B0040017D
:103CD000200850019A00080064261E131E159E1627
:103CE0002030F90016009C0016009D001A081F3AAB
:103CF0001F390319033283269A0AF4339E1283264E
:103D00001E114001080055309F00AA309F009E14EC
:103D100008007E01B801C301CE01400100309800C7
:103D20000030990000309A00FF309200AF309300CD
:103D3000FF309400540108309F00CF309B000030CA
:103D40009C009D171D161E121E159E164001080090
:0A3F000000000100020002000000B2
:023FFE000000C1
:020000040001F9
:02000E008C1F45
:08001000FE3F9F3FEF1FFF3F81
:00000001FF
