:020000040000FA
:040000008A017428D5
:080008008A01200012122E00F3
:10001000901C1A28901020004B2049204720452092
:100020001215A30B0732A10803190032A201200800
:10003000A3001211090020005F30FF00203084006F
:10004000850140205030FF00A03084004020850A08
:100050003720850A3720850A3720850A3720850A08
:100060003720850A3030FF002030840009325030BC
:10007000FF002030840040205030FF00A03084007A
:100080008001840AFF0BFC3308002F3005322D302D
:1000900003322B30013229308400003085001300F8
:1000A00000040319080001308002840A0301803B28
:1000B000080020002E082F04080020002C082D0422
:1000C000080020002A082B04080020002808290422
:1000D000080005300332413001321930F7000000CA
:1000E0000000F70BFC330800CF2064002000330829
:1000F0000B007F28802881288228200075287D28F1
:100100007D287D287D28360807390B0022320632EB
:100110000D321F321E320C320D320E32121600001A
:10012000000000009E20241A121213329E20113269
:100130009E200F329E200D329E200B322411B619C4
:1001400003320C1E241502320C1A2415241DA4118E
:100150000800370807390B00223206320D321F32F1
:100160001E320C320D320E329216000000000000DA
:10017000C420A41B92121332C4201132C4200F32A7
:10018000C4200D32C4200B32A412B71903328C1EC6
:10019000A41602328C1EA416A41E241308003E00CE
:1001A0000030B800BB01BC010030C3000030CE00FD
:1001B0002000003098000030990000309A00FF3095
:1001C0009200AF309300FF30940025000130900082
:1001D000E9308E007D308D0091018F012E009A1440
:1001E0001B2064002000200012116430A0000130A8
:0C01F000A3006430AE000B178B17080052
:020000040001F9
:02000E008C1F45
:08001000FE3FFF3FEF1FFF3F21
:00000001FF
