:020000040000FA
:040000008A01122837
:080008008A0140014E018C1E2B
:1000100008328C1240011215A30B03322008A300F2
:100020001211090018200000000000000000FB333E
:10003000500126308C007E010030B800BB01BC01AD
:100040000030C3000030CE00400100309800003086
:10005000990000309A00FF309200AF309300FF30DB
:1000600094004B0189309E0056309F007D309D00EA
:100070009E174E01961640010B178B176430A00097
:0C008000A101A2010130A3001211080030
:020000040001F9
:02000E008C1F45
:08001000FE3F9F3FEF1FFF3F81
:00000001FF
